:100000000C94EA000C9412010C9412010C9412014D
:100010000C9412010C9412010C9412010C94120114
:100020000C9412010C9412010C9456040C94D604F6
:100030000C9412010C9412010C9412010C941201F4
:100040000C9412010C9450070C9412010C941201A0
:100050000C9412010C9412010C9412010C940607DA
:100060000C9412010C9412010C9412010C941201C4
:100070000C9412010C9412010C9412010C941201B4
:100080000C9412010C9412010C9412010C941201A4
:100090000C9412010C9412010C9412010C94120194
:1000A0000C9412010C9412010C94120139023C02BE
:1000B0002B022F0233025D025D025D024002440208
:1000C00048024E0252025D0258029C0C910DB20C85
:1000D000910DC60C910DE90C910D030D910D370D8D
:1000E000910D5B0D0000000200090F0000030401E8
:1000F000000C0000000000000000000000000000F4
:10010000000000080B0002020201000904000001C7
:10011000020200000524001001052401010104244D
:1001200002060524060001070581031000400904AA
:100130000100020A00000007050202400000070556
:1001400083024000000403090412010002EF0201CF
:100150004041233680000101020301417264756948
:100160006E6F204C4C430041726475696E6F204C79
:10017000656F6E6172646F0000000000250028004A
:100180002B002E00310000000000240027002A0070
:100190002D003000040404040403040502020202DA
:1001A0000403020202020606060606060404020210
:1001B00002040404080201104080401020408040E6
:1001C00080080204018040201002011080102040AD
:1001D00040209A0D11241FBECFEFDAE0DEBFCDBF65
:1001E00011E0A0E0B1E0ECEEFCE102C005900D9260
:1001F000A632B107D9F722E0A6E2B1E001C01D9214
:10020000A031B207E1F710E0CAEED0E004C02197B8
:10021000FE010E94690EC93ED107C9F70E94370A44
:100220000C94740E0C9400004091340150913501EF
:10023000209132013091330142175307B4F4909169
:10024000E8009570E1F39091E80092FD19C0809369
:10025000F100809134019091350101968F739927B7
:10026000892B19F48EEF8093E800809134019091EE
:1002700035010196909335018093340181E0089512
:1002800080E00895CF92DF92EF92FF920F931F9339
:10029000CF93DF931F92CDB7DEB7182F062FE42E32
:1002A000862F880F8E5F99830E94140183E00E943D
:1002B0001401F12EC12E9981D92E8C2D8F19801702
:1002C00098F4F601E7FE02C0849101C080810E948B
:1002D0001401182F80E00E9414018123FFEFCF1A30
:1002E000DF0A8111EACF01C081E00F90DF91CF9149
:1002F0001F910F91FF90EF90DF90CF900895DF92C4
:10030000EF92FF920F931F93CF93DF93D82E8A0122
:100310007B01E40EF51EEB01CE15DF0571F0D7FE73
:1003200003C0FE01849101C088810E9414012196BE
:100330008111F2CF8FEF9FEF01C0C801DF91CF9104
:100340001F910F91FF90EF90DF900895615030F072
:100350002091F100FC0120830196F8CF289884E6D3
:1003600080938A010895CF92DF92EF92FF920F93CC
:100370001F93CF93DF936C017A018B01C0E0D0E033
:10038000CE15DF0589F0D8016D918D01D601ED9173
:10039000FC910190F081E02DC6010995892B11F4A3
:1003A0007E0102C02196ECCFC701DF91CF911F9152
:1003B0000F91FF90EF90DF90CF900895CF93DF9350
:1003C0001F92CDB7DEB76983DC01ED91FC9102800D
:1003D000F381E02D41E050E0BE016F5F7F4F099552
:1003E0000F90DF91CF910895FC018485958597FD4D
:1003F0000BC09FB7F89482E08093E9008091F200EF
:100400009FBF90E0019608959FB7F89482E0809393
:10041000E9008091F2009FBF90E00895362F90E0B0
:10042000FC01EC51FF4F4491FC01ED54FE4F24912F
:10043000FC01EC56FE4F8491882309F451C04423FB
:10044000E1F150E0FA013197EF30F105B0F5EA5AE9
:10045000FF4F0C94690E909180009F7707C0909198
:1004600080009F7D03C090918000977F90938000D3
:1004700024C094B59F7702C094B59F7D94BD1DC0E4
:10048000909190009F7707C0909190009F7D03C04E
:1004900090919000977F909390000FC09091C00032
:1004A0009F7703C09091C0009F7D9093C00005C0CE
:1004B0009091C200977F9093C200E82FF0E0EE0F7A
:1004C000FF1FE858FE4FA591B4918FB7F894EC91B7
:1004D000311103C020952E2301C02E2B2C938FBFEA
:1004E00008953FB7F89480912E0190912F01A0912B
:1004F0003001B091310126B5A89B05C02F3F19F0FE
:100500000196A11DB11D3FBFBA2FA92F982F882793
:10051000820F911DA11DB11DBC01CD0142E0660FEE
:10052000771F881F991F4A95D1F708958F929F9240
:10053000AF92BF92CF92DF92EF92FF926B017C015C
:100540000E9471024B015C01C114D104E104F10469
:10055000F1F00E947102DC01CB0188199909AA0906
:10056000BB09883E9340A105B10570F321E0C21A92
:10057000D108E108F10888EE880E83E0981EA11CDE
:10058000B11CC114D104E104F10419F7DDCFFF90CF
:10059000EF90DF90CF90BF90AF909F908F90089595
:1005A0007F928F929F92AF92BF92CF92DF92EF9203
:1005B000FF920F931F93CF93DF936C015B017A013E
:1005C00080910D01882309F46BC080918B018823F1
:1005D00009F466C08091380180FF05C08091E00079
:1005E00082608093E000E70110E00AEF83E0982E3C
:1005F00090E4792E2AE3822E209709F448C08FB721
:10060000F8949092E9009091E80095FF06C09091CF
:10061000F200272D291B922F01C090E08FBF91116E
:100620000AC0015009F43CC061E070E080E090E055
:100630000E949602E1CF292F30E0C217D3070CF4B5
:100640009C2F8FB7F8949092E9002091E80025FF45
:100650001CC0292F30E0C21BD30BF501915020F0B4
:1006600041914093F100FACFA20EB31E112319F06D
:100670008092E80009C09091E80095FD06C0809244
:10068000E80011E0209709F010E08FBFB5CF1111FD
:10069000B6CF5D9884E6809336011E141F0444F0A3
:1006A00081E090E0F6019383828380E090E001C0D6
:1006B000C701DF91CF911F910F91FF90EF90DF90D5
:1006C000CF90BF90AF909F908F907F9008950C94A3
:1006D000B4086FEE8CE891E00E94DE016FEE8CE8CA
:1006E00091E00E94DE016FEE8CE891E00E94DE0155
:1006F0000C94B408CF92DF92EF92FF920F931F9366
:10070000CF93DF9300D000D0CDB7DEB79FB7F8947A
:10071000C0902A01D0902B01E0902C01F0902D0187
:100720009FBF082F10E08CE891E049835A836B83C8
:100730007C830E94F40149815A816B817C818017FE
:100740009107A4F42FB7F89480912A0190912B017E
:10075000A0912C01B0912D012FBF8C199D09AE09DC
:10076000BF0984179507A607B707E8F28CE891E060
:100770000E94F4018017910724F40E94690380E02D
:1007800001C081E00F900F900F900F90DF91CF91FB
:100790001F910F91FF90EF90DF90CF9008950E94EE
:1007A0006F0E0F931F93CF93DF931F92CDB7DEB7DA
:1007B00082E0898342E450E063E071E080E80E94D7
:1007C0007F010E94E908DC0112960D911C9113979C
:1007D0000115110569F0D801ED91FC910280F381BA
:1007E000E02DBE016F5F7F4FC801099597FF07C0DD
:1007F00089810F90DF91CF911F910F910895F8019A
:1008000000851185E5CF0F931F93CF93DF931F9240
:10081000CDB7DEB78C01FC018485958597FF0EC0AE
:10082000CE0101960E94BF08019719F4298130E09A
:1008300002C02FEF3FEFF80135872487F801848548
:1008400095850F90DF91CF911F910F910895CF93D0
:10085000DF931F92CDB7DEB7FC018485958597FDA8
:1008600005C02FEF3FEF358724870BC0CE010196DF
:100870000E94BF08019719F4898190E002C08FEFB0
:100880009FEF0F90DF91CF91089580933A018823D5
:1008900019F08CE890E002C08AEA90E00E9411080A
:1008A00068EC70E080E090E00C9496021F920F924A
:1008B0000FB60F9211242F933F934F935F936F9333
:1008C0007F938F939F93AF93BF93CF93EF93FF93B8
:1008D000C091E1008091E100837F8093E100C3FF3C
:1008E0000FC01092E90081E08093EB001092EC00C1
:1008F00082E38093ED0010928B0188E08093F000FA
:10090000C2FF18C00E94B40880913601882339F0D4
:1009100080913601815080933601882389F180913E
:100920008A01882339F080918A01815080938A015D
:10093000882341F1C4FF10C08091E2008E7E816067
:100940008093E2008091E1008F7E8093E1008091AE
:1009500038018E7E806111C0C0FF16C08091E20018
:100960008E7E80618093E2008091E1008E7E809394
:10097000E100809138018E7E81608093380104C04F
:100980005D9ACDCF289AD6CFFF91EF91CF91BF91AD
:10099000AF919F918F917F916F915F914F913F9117
:1009A0002F910F900FBE0F901F9018951F920F92CE
:1009B0000FB60F921124CF92DF92EF92FF920F9316
:1009C0001F932F933F934F935F936F937F938F93D7
:1009D0009F93AF93BF93EF93FF93CF93DF93CDB7E5
:1009E000DEB76C97DEBFCDBF1092E9008091E800C2
:1009F00083FFEDC168E0CE0145960E94A60182EF1B
:100A00008093E8008D8987FF05C09091E80090FFF2
:100A1000FCCF03C09EEF9093E800982F907609F0EA
:100A2000C6C09E892F89188D91110CC0803829F479
:100A3000809139018093F10002C01092F100109270
:100A4000F10048C1422F50E0512B913051F48111F7
:100A500041C14130510509F03DC1809139018D7F7F
:100A60000BC0933061F4811135C14130510509F05B
:100A700031C1809139018260809339012BC1953059
:100A800041F48091E80080FFFCCF20682093E300D0
:100A900021C1963009F05FC0EB8CFC8C1092E9000C
:100AA0001092350110923401123091F510923301F9
:100AB000109232010E94D10399E0BE016F5F7F4F17
:100AC000DB01E92F1D92EA95E9F799831A8391E0FA
:100AD0009E8390EA98879AEF99872091340130910C
:100AE0003501275F3F4F3C832B838D831092E900B4
:100AF0001092350110923401F0923301E0923201EC
:100B000049E050E080E00E947F010E94D103E2C0F2
:100B1000F0923301E09232010E94E908DC01129662
:100B2000ED90FC901397E114F10409F4C0C0D701D3
:100B3000ED91FC910480F581E02DBE016B5E7F4F4D
:100B4000C7010995009719F00CF0C4C0C7C0F701A0
:100B5000E084F184E8CF973009F4C0C0983021F4E4
:100B600081E08093F100B6C0993009F0B3C0837082
:100B700009F0B4C0EFE0F1E081E021E036E39081DC
:100B8000992361F08093E9002093EB009191909379
:100B9000EC003093ED008F5F873089F78EE780930C
:100BA000EA001092EA008F8980938B0193C08B8DAD
:100BB0009C8D1092E90010923501109234019093AF
:100BC000330180933201898D811156C08E899D89B0
:100BD000913A59F4813209F081C047E050E066E073
:100BE00071E080E00E947F0175C0913209F076C00B
:100BF000833289F4888D90E0982F88272F89822B63
:100C0000A0E0B0E08093020190930301A09304015F
:100C1000B09305015FC0803269F48091E80082FFE3
:100C2000FCCF67E086E091E00E94A6018BEF809305
:100C3000E80006C0823209F04DC08F8980930D0113
:100C400080913701882319F0EEEFFAE002C0E0E06E
:100C5000F8E08091060190910701A0910801B09100
:100C60000901803B9440A105B10509F07BC080914A
:100C70000D0180FF93C076C00E94E908DC01129646
:100C80000D911C9113970115110541F1D801ED91BA
:100C9000FC910190F081E02DBE016B5E7F4FC80199
:100CA0000995811117C0F80100851185ECCF11302D
:100CB00009F44EC0133091F48F89882309F445C09C
:100CC000823081F440E860E187E691E00E944201D1
:100CD000882321F08EEF8093E80079C081E2809331
:100CE000EB0075C0813029F440E86BE08BE591E0C2
:100CF000EDCF833099F70E94E908DC011296ED9060
:100D0000FC9013978E010F5F1F4F6801E114F104EF
:100D100079F0D701ED91FC910680F781E02DB801C3
:100D2000C7010995080F111DF701E084F184EECF8A
:100D3000D8011C92F60101900020E9F73197BF011C
:100D40006C197D0940E0C601C1CF65E471E002C0C5
:100D500069E471E06115710509F2FB01449150E00D
:100D600080E840CF0FB6F894A89580916000886124
:100D700080936000109260000FBEA895EE3F2AE0BD
:100D8000F20739F08091FE0A9091FF0A91838083E7
:100D9000A1CF1092FF0A1092FE0A9CCFEE3F8AE08C
:100DA000F80731F0808191819093FF0A8093FE0AC9
:100DB00087E797E7918380839BE088E10FB6F894FB
:100DC000A895809360000FBE9093600083CF6C96CF
:100DD0000FB6F894DEBF0FBECDBFDF91CF91FF916C
:100DE000EF91BF91AF919F918F917F916F915F91A3
:100DF0004F913F912F911F910F91FF90EF90DF90B6
:100E0000CF900F900FBE0F901F9018951F920F92CA
:100E10000FB60F9211242F933F938F939F93AF930D
:100E2000BF9380912A0190912B01A0912C01B09148
:100E30002D013091290123E0230F2D3720F4019655
:100E4000A11DB11D05C026E8230F0296A11DB11DED
:100E50002093290180932A0190932B01A0932C01C8
:100E6000B0932D0180912E0190912F01A09130011E
:100E7000B09131010196A11DB11D80932E01909377
:100E80002F01A0933001B0933101BF91AF919F9199
:100E90008F913F912F910F900FBE0F901F9018953B
:100EA0001F920F920FB60F9211242F933F934F93DF
:100EB0005F936F937F938F939F93AF93BF93EF93C2
:100EC000FF938091280187FF05C010928500109242
:100ED00084001BC020912801022E000C330B80914E
:100EE000000290E02817390784F480912801082E29
:100EF000000C990BFC01EE0FFF1F8E0F9F1FFC01D2
:100F0000E452FE4F808186FD15C0809128018F5FDD
:100F10008093280120912801022E000C330B809130
:100F2000000290E028173907C4F4809128018C3022
:100F300064F113C080912801082E000C990BFC016C
:100F4000EE0FFF1F8E0F9F1FFC01E452FE4F8081AA
:100F500060E08F730E940E02D8CF80918400909140
:100F60008500049680349C4918F480E49CE905C00F
:100F700080918400909185000496909389008093DD
:100F800088008FEF809328013BC02091840030912E
:100F9000850080912801082E000C990BFC01EE0FB2
:100FA000FF1F8E0F9F1FFC01E452FE4F8181928133
:100FB000820F931F9093890080938800809128016D
:100FC000082E000C990BFC01EE0FFF1F8E0F9F1FC8
:100FD000FC01E452FE4F808186FF12C080912801FF
:100FE000082E000C990BFC01EE0FFF1F8E0F9F1FA8
:100FF000FC01E452FE4F808161E08F730E940E027B
:10100000FF91EF91BF91AF919F918F917F916F91E0
:101010005F914F913F912F910F900FBE0F901F90B6
:101020001895CF92DF92EF92FF92DC01A03282E01E
:10103000B8070CF03EC0B7FD06C0A53BB1052CF0CB
:10104000A4EBB0E002C0A0E0B0E08091020228E88A
:1010500030E06901C81AD10887FDD394CC0CDD1C9F
:10106000CC0CDD1C0D2C000CEE08FF088091030257
:1010700028E532E0281B310987FD3395220F331F05
:10108000220F331FA901330F660B770B9A01AB01B7
:101090002C193D094E095F090E94FC0D24EB30E03C
:1010A00040E050E00E94D20DC20ED31EE41EF51E99
:1010B000D601909101029C3098F58091020248E897
:1010C00050E0481B510987FD5395440F551F440FAD
:1010D000551FA417B5078CF08091030228E532E074
:1010E000281B310987FD3395220F331F220F331F31
:1010F000AD012A173B070CF4A90142505109440FD6
:10110000551F2FB7F894892F90E0FC01EE0FFF1FB9
:101110008E0F9F1FFC01E452FE4F528341832FBF6D
:10112000FF90EF90DF90CF90089590E0FC01ED5498
:10113000FE4F2491FC01EC56FE4F8491882399F0D8
:1011400090E0880F991FFC01EA57FE4FA591B491DA
:10115000FC01E858FE4F859194918FB7F894EC917B
:10116000E22BEC938FBF089583E08093E900809198
:10117000F200882319F08AE38093E8000895FC01C7
:1011800080918B01811103C08FEF9FEF08959FB76E
:10119000F89482E08093E9002091F20030E012168A
:1011A000130614F421E030E02115310559F0289898
:1011B00084E680938A018091F10080838091F2001F
:1011C000882319F09FBFC90108958BE68093E8003A
:1011D000F9CF8091080281110DC082E08093040252
:1011E00084E080930502109207021092060281E0CB
:1011F0008093080284E092E00895CF93DF93EB019F
:1012000097FF02C060E001C061E084E00E940E022E
:10121000D7FF02C060E001C061E086E0DF91CF91BE
:101220000C940E024F925F926F927F928F929F92D8
:10123000AF92BF92CF92DF92EF92FF920F931F93E4
:10124000CF93DF937C0140913A01809126019091E8
:1012500027012091000130910101442309F46FC05E
:101260006E324FEF74073CF0623D71053CF4EB01C8
:10127000CE52DF4F05C0C0E0D0E002C0C3EAD1E0EB
:101280008701081B190B3E01621A730AB301C801DA
:101290000E94FD08C80117FF03C09195819591092F
:1012A0006C0177FE03C07194619471086816790629
:1012B0003CF063013C0145E0442E57E0552E04C04C
:1012C00027E0422E35E0532E660C771C83010C1963
:1012D0001D09882499248C189D08880C991CA12C20
:1012E000B12CAC14BD0409F4A2C061E0852D0E94AC
:1012F0000E021016110624F461E0842D0E940E02E5
:1013000062E070E080E090E00E94960260E0852D4F
:101310000E940E021016110634F460E0842D0E9423
:101320000E02080D191D62E070E080E090E00E945E
:101330009602060D171D5FEFA51AB50AD2CF6E32C1
:101340004FEF74073CF0623D71053CF4EB01CE5267
:10135000DF4F05C0C0E0D0E002C0C3EAD1E0A70182
:10136000481B590BCA0160E476E00E94550E8C01BF
:10137000AC0197FF04C044275527481B590B413245
:1013800053404CF08C01181619061CF400541640FA
:1013900002C0005C194F6E01C21AD30AB601C8011F
:1013A0000E94FD0817FF03C0119501951109D7FE92
:1013B00003C0D194C194D10848010C151D050CF44B
:1013C0004601A12CB12CA814B90489F1A016B106CC
:1013D0006CF461E085E00E940E02AC14BD040CF0D8
:1013E0003FC061E087E00E940E0203C0AC14BD0460
:1013F000C4F362E070E080E090E00E949602A016E4
:10140000B10624F460E085E00E940E02AC14BD0435
:1014100024F460E087E00E940E0262E070E080E069
:1014200090E00E9496028FEFA81AB80ACCCFF092F3
:101430002701E0922601D0930101C0930001DF91C2
:10144000CF911F910F91FF90EF90DF90CF90BF90C1
:10145000AF909F908F907F906F905F904F90089586
:1014600062E070E080E090E00E949602CBCF78943A
:1014700084B5826084BD84B5816084BD85B5826099
:1014800085BD85B5816085BD80916E00816080934A
:101490006E001092810080918100826080938100B3
:1014A00080918100816080938100809180008160C3
:1014B0008093800080919100826080939100809160
:1014C0009100816080939100809190008160809371
:1014D00090008091C10084608093C1008091C10020
:1014E00082608093C1008091C10081608093C100BF
:1014F0008091C30081608093C3008091C0008260AE
:101500008093C0008091C20081608093C20080916E
:101510007A00846080937A0080917A008260809360
:101520007A0080917A00816080937A0080917A00BD
:10153000806880937A0010928B011092390110928A
:1015400038018091D70081608093D70080EA809332
:10155000D80089B5806189BD89B5826089BD09B42B
:1015600000FEFDCF61E070E080E090E00E94960216
:101570008091D8008F7C80618093D8008091E000BA
:10158000807F8093E0008091E1008E7E8093E10077
:101590008DE08093E200559A209AEEEFFFE7859167
:1015A00094918B3F9C4D19F481E0809337018CE03E
:1015B0000E94950884E00E94950885E00E949508A5
:1015C0008DE00E94950886E00E94950887E00E94C1
:1015D000950861E08CE00E940E0261E08DE00E94BF
:1015E0000E0260E084E00E940E0260E086E00E944D
:1015F0000E02809101028C3008F050C083E00E94FE
:10160000950880910102E82FF0E09F01220F331F1F
:10161000E20FF31FE452FE4F9081907C9360908321
:1016200010920202109203026CE00E94350E9CE0C0
:10163000899FB001112440E050E09A01260F371F26
:10164000F901EE0FFF1F2E0F3F1FF901E452FE4F6D
:10165000908196FD16C04F5F5F4F4C30510569F782
:1016600081110FC01092800082E08093810010925F
:10167000850010928400B19A80916F0082608093FF
:101680006F00E0910102F0E0CF01880F991FE80F91
:10169000F91FE452FE4F80818064808380E00E94C5
:1016A00045048FEF9FEF9093990180939801C0912B
:1016B0000D016AE070E080E090E00E949602CC2389
:1016C000B1F32AE4E22E21E0F22E30E4732ECFEFC4
:1016D000D0E040E0C42E40E0D42ED701E72D1D928B
:1016E000EA95E9F78CE891E00E94F4010497D0F3C1
:1016F0008CE891E00E942704809349018F3F09F014
:1017000012C28CE891E00E942704809349018E3F29
:1017100009F009C28CE891E00E94270480934901F6
:101720008D3F09F000C28CE891E00E94270480936D
:1017300049018C3F09F0F7C16CEF8CE891E00E9401
:10174000DE016DEF8CE891E00E94DE016EEF8CE827
:1017500091E00E94DE016FEF8CE891E00E94DE01D3
:101760000E94B40844EF51E060E070E083E00E9422
:101770007A03882309F4D7C18CE891E00E942704FA
:101780008B3F910509F0CFC18CE891E00E942704BE
:10179000809348018CE891E00E94270480934701E0
:1017A000682F8CE891E00E94DE01609148018CE88E
:1017B00091E00E94DE016BEF8CE891E00E94DE0177
:1017C0000E94B4088091470140ED57E060E070E06E
:1017D0008C5F0E947A03882309F4A5C10AE411E012
:1017E00058018091470190E09C012D5F3F4FA5017A
:1017F0004A5451402417350744F08CE891E00E9488
:101800002704D5018D935D01ECCFFC01E65BFE4F13
:10181000828180934601F901E65BFE4F80818093CF
:10182000450140ED57E060E070E081E00E947A03FE
:10183000882309F478C18CE891E00E9427048A3F4C
:10184000910509F070C140914701A42EB12CB2E07E
:10185000AB0EB11C9AE4892E91E0992EE0E0F0E005
:1018600020E030E0C4018A5491408A159B0590F431
:10187000D4018D914D01B901680F711DCB01BE01DD
:101880000E94410E9C018E0F9F1FBE010E94410EBF
:10189000FC01E8CFFE2FEE272E2B3F2B3093440187
:1018A000209343015901BB24B0924201A09241010F
:1018B000232F33273093400120933F01C9018A0D24
:1018C0009B1DBE010E94410E9E01281B390B3093C7
:1018D0003E0120933D01C9018A0D9B1DBE010E945E
:1018E000410EBE01681B790B70933C0160933B0174
:1018F0008091460190E02817390709F012C18091C4
:10190000450190E06817790709F00BC1E0914801A3
:1019100080914A01E81305C180914B01481301C130
:101920008E2F90E0FC013197ED30F10508F0F9C001
:10193000EB59FF4F0C94690E69EF8CE891E00E941F
:10194000DE0163E08CE891E00E94DE0162E08CE859
:1019500091E00E94DE0161E08CE891E00E94DE01EE
:1019600062E030C060E08CE00E940E0260E08DE03A
:101970000E940E0269EF8CE891E00E94DE0161E0B6
:101980008CE891E00E94DE0164E01CC080E00E94CF
:10199000450460E070E080E090E00E94120961E0A0
:1019A0008CE00E940E0261E08DE00E940E0269EF61
:1019B0008CE891E00E94DE0161E08CE891E00E94F9
:1019C000DE0166E08CE891E00E94DE010E94B4082E
:1019D000AAC081E090914C01911101C080E00E9469
:1019E000450469EF8CE891E00E94DE0162E08CE83A
:1019F00091E00E94DE0168E08CE891E00E94DE0147
:101A000060913A01DFCF642E66946694A62CB12CC7
:101A1000812C912C0C5F1F4F8A149B04BCF4D801BD
:101A20006C9170E0762F662711968C91682BF801E7
:101A30003297808190E0982F882731962081822BE1
:101A40000E941209BFEF8B1A9B0AE4CF69EF8CE862
:101A500091E00E94DE0162E08CE891E00E94DE01EC
:101A60006AE08CE891E00E94DE01662DABCF80E059
:101A70000E94450460914E0170E0762F66278091A8
:101A80004F01682B80914C0190E0982F882720917E
:101A90004D01822B0E94120981E00E94450469EFEA
:101AA0008CE891E00E94DE0161E08CE891E00E9408
:101AB000DE016CE087CF80E00E94450460914E011A
:101AC00070E0762F662780914F01682B80914C0142
:101AD00090E0982F882720914D01822B0E941209B7
:101AE00081E00E9445046091520170E0762F6627E4
:101AF00080915301682B8091500190E0982F8827A6
:101B000020915101822B0E94120969EF8CE891E02B
:101B10000E94DE0161E08CE891E00E94DE016EE04F
:101B200051CF0E946903C114D10409F4D6CD0E949B
:101B30000000D3CD10928F0110928E0188EE93E0B9
:101B4000A0E0B0E08093900190939101A093920166
:101B5000B093930189E191E090938D0180938C0182
:101B60008FEF9FEF909399018093980180910002ED
:101B70008C30A0F491E0980F9093000280930102C2
:101B800090E0FC01EE0FFF1F8E0F9F1FFC01E4523F
:101B9000FE4F88EB9BE09283818308958FEF8093C3
:101BA00001020895052E97FB1EF400940E94E90D92
:101BB00057FD07D00E94040E07FC03D04EF40C948E
:101BC000E90D50954095309521953F4F4F4F5F4F10
:101BD000089590958095709561957F4F8F4F9F4F99
:101BE00008950E94260EA59F900DB49F900DA49F6E
:101BF000800D911D11240895B7FF0C94F10D0E94E2
:101C0000F10D821B930B0895A1E21A2EAA1BBB1B98
:101C1000FD010DC0AA1FBB1FEE1FFF1FA217B307B8
:101C2000E407F50720F0A21BB30BE40BF50B661FCE
:101C3000771F881F991F1A9469F760957095809592
:101C400090959B01AC01BD01CF010895A29FB00109
:101C5000B39FC001A39F700D811D1124911DB29FE0
:101C6000700D811D1124911D0895991B79E004C008
:101C7000991F961708F0961B881F7A95C9F78095CB
:101C80000895AA1BBB1B51E107C0AA1FBB1FA617C3
:101C9000B70710F0A61BB70B881F991F5A95A9F715
:101CA00080959095BC01CD01089597FB072E16F401
:101CB000009407D077FD09D00E94410E07FC05D0A3
:101CC0003EF4909581959F4F0895709561957F4F53
:101CD0000895EE0FFF1F0590F491E02D099481E027
:0C1CE00090E0F8940C94740EF894FFCF80
:101CEC00D200FFFFFFFF00E100000000000000C178
:101CFC00808100000000000000DE01D002F401270A
:061D0C000403046703005C
:00000001FF
