:1000000014C1000042C1000040C100003EC1000018
:100010003CC100003AC1000038C1000036C10000F8
:1000200034C1000032C1000030C100002EC1000008
:100030002CC100002AC1000028C1000026C1000018
:1000400024C100002CC6000020C100001EC1000019
:100050001CC100001AC1000018C100004FC50000FB
:1000600014C1000015C50000EAC400000EC1000064
:100070000CC100000AC1000008C1000006C1000058
:10008000E1C5000002C1000000C10000FEC0000088
:10009000FCC00000FAC00000F8C00000F6C000007C
:1000A000F4C00000F2C00000A0C50000EEC00000D7
:1000B000ECC00000EAC00000E8C0000069C5000014
:1000C000E4C00000E2C00000E0C00000DEC00000AC
:1000D000DCC00000DAC00000D8C00000D6C00000BC
:1000E000D4C000003E0341033003340338037803D7
:1000F000450349034F03530357035D03610365033E
:1001000078036B036F037303280AFD0A390AFD0A9B
:10011000480AFD0A5E0AFD0A750AFD0AA40AFD0ADC
:10012000C40A00000A0B02090C0D0E0807030401A3
:1001300000000000000000000000000000000000BF
:10014000000000000000000000000000000012118C
:10015000100000000000000000000000000000008F
:100160000000000000000000000022002500280020
:100170002B002E00310034000201000005010801AF
:100180000B0100002100240027002A002D00300070
:10019000330001010000040107010A0105050505FE
:1001A000070508080808020202020A0A08080404EF
:1001B000040401010101010101010303030303031D
:1001C0000303040707070C0C0C0C0C0C0C0C0202AC
:1001D000020206060606060606060B0B0B0B0B0BA9
:1001E0000B0B010210202008081020401020408036
:1001F00002010201080402010102040810204080EB
:100200008040201008040201800402018040201078
:1002100008040201080402010102040810204080C1
:100220000102040810204080A40711241FBECFEF54
:10023000D1E2DEBFCDBF00E00CBF12E0A0E0B2E033
:10024000E6E9F7E100E00BBF02C007900D92A23192
:10025000B107D9F723E0A2E1B2E001C01D92A23AB2
:10026000B207E1F711E0C5E1D1E000E006C0219757
:100270000109802FFE010E94BD0BC431D10780E02F
:100280000807A9F7BFD60C94C90BBACECF92DF925C
:10029000EF92FF92DC01A03282E0B8070CF03EC082
:1002A000B7FD06C0A53BB1052CF0A4EBB0E002C041
:1002B000A0E0B0E08091A00328E830E06901C81A0E
:1002C000D10887FDD394CC0CDD1CCC0CDD1C0D2C8F
:1002D000000CEE08FF088091A10328E532E0281BFE
:1002E000310987FD3395220F331F220F331FA901D8
:1002F000330F660B770B9A01AB012C193D094E09A0
:100300005F090E94530B24EB30E040E050E00E9474
:100310002D0BC20ED31EE41EF51ED60190919F0335
:10032000903398F58091A00348E850E0481B5109AC
:1003300087FD5395440F551F440F551FA417B5074C
:100340008CF08091A10328E532E0281B310987FD5C
:100350003395220F331F220F331FAD012A173B079E
:100360000CF4A90142505109440F551F2FB7F894BE
:10037000892F90E0FC01EE0FFF1F8E0F9F1FFC01E5
:10038000E25FFC4F528341832FBFFF90EF90DF90DD
:10039000CF90089590E0FC01EE51FE4F2491FC01B6
:1003A000E456FE4F8491882399F090E0880F991FBE
:1003B000FC01EE57FE4FA591B491FC01E859FE4FA8
:1003C000859194918FB7F894EC91E22BEC938FBFC9
:1003D0000895CF92DF92EF92FF920F931F93CF93E6
:1003E000DF936C017A018B01C0E0D0E0CE15DF0510
:1003F00089F0D8016D918D01D601ED91FC910190AC
:10040000F081E02DC6011995892B11F47E0102C0FF
:100410002196ECCFC701DF91CF911F910F91FF90F3
:10042000EF90DF90CF900895FC01918D828D981709
:1004300061F0828DDF01A80FB11D5D968C91928DC8
:100440009F5F9F73928F90E008958FEF9FEF0895C5
:10045000FC01918D828D981731F0828DE80FF11D8E
:10046000858D90E008958FEF9FEF0895FC01918DA9
:10047000228D892F90E0805C9F4F821B91098F73A2
:100480009927089581E792E0F1DF21E0892B09F4B3
:1004900020E0822F0895FC01848DDF01A80FB11D9B
:1004A000A35ABF4F2C91848D90E001968F739927AA
:1004B000848FA689B7892C93A089B1898C91806497
:1004C0008C93938D848D981306C00288F389E02D58
:1004D00080818F7D80830895EF92FF920F931F9309
:1004E000CF93DF93EC0181E0888F9B8D8C8D9813E7
:1004F00005C0E889F989808185FD23C0F62E0B8D22
:1005000010E00F5F1F4F0F731127E02E8C8DE81244
:100510000BC00FB607FCFACFE889F989808185FF07
:10052000F5CFCE01B8DFF2CF8B8DFE01E80FF11DC4
:10053000E35AFF4FF0820B8FEA89FB89808180624A
:1005400007C0EE89FF896083E889F989808180642A
:10055000808381E090E0DF91CF911F910F91FF9018
:10056000EF900895682F81E792E0B6CFCF93DF93A5
:10057000EC01888D8823C1F0EA89FB89808185FDA3
:1005800005C0A889B9898C9186FD0EC00FB607FCFD
:10059000F5CF808185FFF2CFA889B9898C9185FF3D
:1005A000EDCFCE0178DFE8CFDF91CF91089580E0E5
:1005B00090E0892B19F066DF811125C080E090E082
:1005C000892B41F080E090E0892B21F00E9400000F
:1005D00081111CC080E090E0892B41F080E090E028
:1005E000892B21F00E940000811113C080E090E06F
:1005F000892BA1F080E090E0892B81F00E9400001F
:1006000081110AC008950E940000D8CF0E94000006
:10061000E1CF0E940000EACF0C9400000895362F2D
:1006200090E0FC01EE5DFE4F4491FC01EE51FE4F67
:100630002491FC01E456FE4F9491992309F46BC078
:10064000442309F455C050E0FA013197E231F10535
:1006500008F04EC08827EE58FF4F8F4F0C94BD0B0B
:10066000809180008F7707C0809180008F7D03C0CC
:1006700080918000877F809380003AC084B58F7717
:1006800002C084B58F7D84BD33C08091B0008F7768
:1006900003C08091B0008F7D8093B00029C080910D
:1006A00090008F7707C0809190008F7D03C080916C
:1006B0009000877F809390001BC08091A0008F776F
:1006C00007C08091A0008F7D03C08091A000877F2C
:1006D0008093A0000DC0809120018F7707C080918A
:1006E00020018F7D03C080912001877F80932001AE
:1006F000E92FF0E0EE0FFF1FE859FE4FA591B491EE
:100700008FB7F894EC91311103C020952E2301C0CE
:100710002E2B2C938FBF08953FB7F89480911D0224
:1007200090911E02A0911F02B091200226B5A89BB5
:1007300005C02F3F19F00196A11DB11D3FBFBA2F73
:10074000A92F982F8827820F911DA11DB11DBC01D3
:10075000CD0142E0660F771F881F991F4A95D1F798
:1007600008958F929F92AF92BF92CF92DF92EF92B5
:10077000FF926B017C01D0DF4B015C01C114D104FD
:10078000E104F104E9F0C8DFDC01CB018819990923
:10079000AA09BB09883E9340A105B10578F321E081
:1007A000C21AD108E108F10888EE880E83E0981E8D
:1007B000A11CB11CC114D104E104F10421F7DECF66
:1007C000FF90EF90DF90CF90BF90AF909F908F9071
:1007D0000895CF92DF92EF92FF920F931F93CF93E2
:1007E000DF936C018B017A01EC01CC5EDD4F8881D7
:1007F00087FF04C0FB011182108224C08CE08C9D15
:1008000090018D9D300D11248881A901480F511D43
:1008100087FD5A9580919E0390E04817590794F4FC
:100820008881A901480F511D87FD5A95CA01FA0117
:10083000EE0FFF1F8E0F9F1FFC01E25FFC4F8081B8
:1008400086FD19C088818F5F88838CE08C9D900124
:100850008D9D300D11248881A901480F511D87FD00
:100860005A9580919E0390E048175907B4F4888107
:100870008C303CF112C08881280F311D87FD3A95DC
:10088000F901EE0FFF1F2E0F3F1FF901E25FFC4F32
:10089000808160E08F73C3DED5CFF80180819181C4
:1008A000049680349C4918F480E49CE904C0F80163
:1008B000808191810496F701918380838FEF8883F3
:1008C00044C0F801408151818881B901680F711DD0
:1008D00087FD7A95CB01FB01EE0FFF1F8E0F9F1F47
:1008E000FC01E25FFC4F81819281840F951FF7012B
:1008F000918380838881A901480F511D87FD5A95F6
:10090000CA01FA01EE0FFF1F8E0F9F1FFC01E25F6D
:10091000FC4F808186FF19C08881280F311D87FD1B
:100920003A95F901EE0FFF1F2E0F3F1FF901E25F0D
:10093000FC4F808161E08F73DF91CF911F910F9108
:10094000FF90EF90DF90CF906ACEDF91CF911F9113
:100950000F91FF90EF90DF90CF9008956FEE81E7B9
:1009600092E0BADD6FEE81E792E0B6DD6FEE81E7EF
:1009700092E0B2DD81E792E0F9CDCF92DF92EF9283
:10098000FF920F931F93CF93DF9300D01F92CDB7A9
:10099000DEB79FB7F894C0901902D0901A02E09089
:1009A0001B02F0901C029FBF082F10E081E792E02D
:1009B00049835A836B837C8359DD49815A816B81DA
:1009C0007C8180179107A4F42FB7F89480911902C5
:1009D00090911A02A0911B02B0911C022FBF8C199A
:1009E0009D09AE09BF0984179507A607B707F0F25E
:1009F00081E792E03BDD801791071CF4AFDF80E0D8
:100A000001C081E00F900F900F900F90DF91CF9178
:100A10001F910F91FF90EF90DF90CF9008958093FA
:100A20002102882319F08CE890E002C08AEA90E065
:100A30002DDC68EC70E080E090E093CEA6D61F92AB
:100A40000F920FB60F9211240BB60F922F933F9374
:100A50004F935F936F937F938F939F93AF93BF93C6
:100A6000EF93FF9381E792E016DDFF91EF91BF9145
:100A7000AF919F918F917F916F915F914F913F9136
:100A80002F910F900BBE0F900FBE0F901F901895D7
:100A90001F920F920FB60F9211240BB60F922F9345
:100AA0008F939F93EF93FF93E0918102F0918202E5
:100AB0008081E0918702F091880282FD12C09081CE
:100AC00080918A028F5F8F7320918B02821751F081
:100AD000E0918A02F0E0EF58FD4F958F80938A02F3
:100AE00001C08081FF91EF919F918F912F910F9085
:100AF0000BBE0F900FBE0F901F9018951F920F9274
:100B00000FB60F9211242F933F938F939F93AF9320
:100B1000BF938091190290911A02A0911B02B0918B
:100B20001C023091180223E0230F2D3720F4019688
:100B3000A11DB11D05C026E8230F0296A11DB11D00
:100B4000209318028093190290931A02A0931B021B
:100B5000B0931C0280911D0290911E02A0911F0271
:100B6000B09120020196A11DB11D80931D029093AA
:100B70001E02A0931F02B0932002BF91AF919F91DC
:100B80008F913F912F910F900FBE0F901F9018954E
:100B90001F920F920FB60F9211240BB60F922F9344
:100BA0003F934F935F936F937F938F939F93AF93F5
:100BB000BF93EF93FF9348E251E064E271E080E07D
:100BC00090E007DEFF91EF91BF91AF919F918F91E0
:100BD0007F916F915F914F913F912F910F900BBE3D
:100BE0000F900FBE0F901F9018951F920F920FB687
:100BF0000F9211240BB60F922F933F934F935F9355
:100C00006F937F938F939F93AF93BF93EF93FF93D4
:100C100048EA50E064EA70E083E090E0DADDFF91BA
:100C2000EF91BF91AF919F918F917F916F915F9164
:100C30004F913F912F910F900BBE0F900FBE0F90D1
:100C40001F9018951F920F920FB60F9211240BB69A
:100C50000F922F933F934F935F936F937F938F9355
:100C60009F93AF93BF93EF93FF9348E950E064E9FC
:100C700070E082E090E0ADDDFF91EF91BF91AF9128
:100C80009F918F917F916F915F914F913F912F91A4
:100C90000F900BBE0F900FBE0F901F9018951F92D4
:100CA0000F920FB60F9211240BB60F922F933F9312
:100CB0004F935F936F937F938F939F93AF93BF9364
:100CC000EF93FF9348E850E064E870E081E090E043
:100CD00080DDFF91EF91BF91AF919F918F917F91B7
:100CE0006F915F914F913F912F910F900BBE0F909D
:100CF0000FBE0F901F901895CF93DF93EB0197FFD6
:100D000002C060E001C061E084E089DCD7FF02C07E
:100D100060E001C061E086E0DF91CF9180CC4F922E
:100D20005F926F927F928F929F92AF92BF92CF927B
:100D3000DF92EF92FF920F931F93CF93DF937C018B
:100D400040912102809112029091130220910002A1
:100D500030910102442309F468C06E324FEF7407EA
:100D60003CF0623D71053CF4EB01CE52DF4F05C013
:100D7000C0E0D0E002C0C3EAD1E08701081B190B34
:100D80003E01621A730AB301C801B6DFC80117FF3A
:100D900003C09195819591096C0177FE03C0719410
:100DA00061947108681679063CF063013C0145E0E6
:100DB000442E57E0552E04C027E0422E35E0532E36
:100DC000660C771C83010C191D09882499248C1842
:100DD0009D08880C991CA12CB12CAC14BD0409F4FD
:100DE00094C061E0852D1BDC101611061CF461E037
:100DF000842D15DC62E070E080E090E0B2DC60E021
:100E0000852D0DDC101611062CF460E0842D07DC16
:100E1000080D191D62E070E080E090E0A2DC060D94
:100E2000171D5FEFA51AB50AD8CF6E324FEF7407C2
:100E30003CF0623D71053CF4EB01CE52DF4F05C042
:100E4000C0E0D0E002C0C3EAD1E0A701481B590BC3
:100E5000CA0160E476E07ED48C01AC0197FF04C047
:100E600044275527481B590B413253404CF08C0105
:100E7000181619061CF40054164002C0005C194FE5
:100E80006E01C21AD30AB601C80136DF17FF03C0CC
:100E9000119501951109D7FE03C0D194C194D108D1
:100EA00048010C151D050CF44601A12CB12CA81409
:100EB000B90459F1A016B1065CF461E085E0AFDB3E
:100EC000AC14BD040CF03AC061E087E0A8DB03C0BD
:100ED000AC14BD04CCF362E070E080E090E041DC53
:100EE000A016B1061CF460E085E099DBAC14BD04EB
:100EF0001CF460E087E093DB62E070E080E090E06B
:100F000030DC8FEFA81AB80AD2CFF0921302E09229
:100F10001202D0930102C0930002DF91CF911F9182
:100F20000F91FF90EF90DF90CF90BF90AF909F9088
:100F30008F907F906F905F904F90089562E070E087
:100F400080E090E00EDCCFCF10927402109273021A
:100F500088EE93E0A0E0B0E0809375029093760273
:100F6000A0937702B093780286E092E090937202A9
:100F70008093710285EC90E090937E0280937D02D5
:100F800084EC90E09093800280937F0280EC90E06C
:100F9000909382028093810281EC90E0909384028E
:100FA0008093830282EC90E0909386028093850286
:100FB00086EC90E0909388028093870210928A02D8
:100FC00010928B0210928C0210928D0280919E03DF
:100FD0008033A0F491E0980F90939E0380939F0339
:100FE00090E0FC01EE0FFF1F8E0F9F1FFC01E25FE0
:100FF000FC4F88EB9BE09283818308958FEF809371
:101000009F030895789484B5826084BD84B581601F
:1010100084BD85B5826085BD85B5816085BD8091C3
:101020006E00816080936E0010928100809181003B
:101030008260809381008091810081608093810033
:10104000809180008160809380008091B1008460F5
:101050008093B1008091B00081608093B000809156
:1010600091008260809391008091910081608093D3
:101070009100809190008160809390008091A10008
:1010800082608093A1008091A10081608093A10083
:101090008091A00081608093A000809121018260F6
:1010A00080932101809121018160809321018091B1
:1010B000200181608093200180917A008460809378
:1010C0007A0080917A00826080937A0080917A0021
:1010D000816080937A0080917A00806880937A00A2
:1010E0001092C1008CE056D984E054D985E052D9E1
:1010F0008DE050D986E04ED987E04CD961E08CE094
:101100008EDA61E08DE08BDA60E084E088DA60E01E
:1011100086E085DA80919F03803308F04FC083E03A
:1011200039D980919F03E82FF0E09F01220F331FF0
:10113000E20FF31FE25FFC4F9081907C93609083FD
:101140001092A0031092A1036CE0E4D24CE0849FC3
:10115000B001112440E050E09A01260F371FF90139
:10116000EE0FFF1F2E0F3F1FF901E25FFC4F908132
:1011700096FD17C04F5F5F4F4C30510569F78130C6
:1011800009F03FC21092800082E0809381001092AB
:10119000850010928400B19A80916F0082608093E4
:1011A0006F00E0919F03F0E0CF01880F991FE80FD7
:1011B000F91FE25FFC4F80818064808380E02FDC38
:1011C000E0918102F091820282E08083E0917D02D1
:1011D000F0917E021082E0917F02F091800280E126
:1011E000808310928902E0918502F091860286E068
:1011F0008083E0918302F09184028081806180830A
:10120000E0918302F0918402808188608083E09184
:101210008302F0918402808180688083E091830260
:10122000F091840280818F7D808321E3A22E22E0D1
:10123000B22E0FEF10E0F50140E411924A95E9F764
:1012400081E792E013D90497D8F381E792E0ECD8D4
:10125000809330028F3F09F0D1C181E792E0E4D85A
:10126000809330028E3F09F0C9C181E792E0DCD85B
:10127000809330028D3F09F0C1C181E792E0D4D85C
:10128000809330028C3F09F0B9C18CEF90E06AD9AD
:101290008DEF90E067D98EEF90E064D98FEF90E00A
:1012A00061D981E792E062D944EF51E060E070E0FB
:1012B00083E063DB882309F4A1C181E792E0B4D81D
:1012C0008B3F910509F09AC181E792E0ADD8582E85
:1012D00080932F0281E792E0A7D8EC01282E80931B
:1012E0002E02682F81E792E0F7D8652D81E792E022
:1012F000F3D86BEF81E792E0EFD881E792E036D93F
:1013000040ED57E060E070E08C2F8C5F36DB882387
:1013100009F474C191E3E92E92E0F92E37016E01D0
:10132000DD24460183E0880E911CC3018153924065
:10133000881699063CF081E792E076D8F301819314
:101340003F01F3CFF2E0CF0ED11CF601EF5CFD4F71
:10135000408040922D02F401EF5CFD4F30803092CE
:101360002C0240ED57E060E070E081E006DB88236E
:1013700009F444C181E792E057D88A3F910509F00A
:101380003DC1E1E3F2E0812C912C20E030E0CF017F
:10139000815392408C159D0570F48191A901480FED
:1013A000511DCA01B801C2D19C01880D991DB80117
:1013B000BDD14C01ECCF982C8824282939293093B1
:1013C0002B0220932A02F901FF27F0932902E093D0
:1013D0002802232F33273093270220932602C901A6
:1013E0008E0F9F1FB801A2D19801281B390B309393
:1013F000250220932402C9018E0F9F1FB80196D1A8
:10140000A801481B590B5093230240932202842DBC
:1014100090E02817390709F0F0C0832D90E04817B5
:10142000590709F0EAC0809131025812E6C0809154
:1014300032022812E2C0852D90E0FC013197ED3098
:10144000F10508F0DAC08827EC57FF4F8F4F95C1A0
:1014500069EF81E792E040D883E090E083D862E0D2
:1014600081E792E039D861E081E792E035D862E027
:10147000BBC060E08CE0D3D860E08DE0D0D869EFED
:1014800081E792E029D881E090E06CD864E0ACC0BC
:1014900080E0C5DA60E070E080E090E040DC61E090
:1014A0008CE0BDD861E08DE0BAD869EF81E792E0C9
:1014B00013D881E090E056D866E096C081E0909124
:1014C0003302911101C080E0AADA69EF81E792E06E
:1014D00003D882E090E046D868E081E792E00E947D
:1014E0006C028091210290E02DC0C695C695D0E097
:1014F000C12CD12C44E0E40EF11CCC16DD06A4F482
:10150000F701608170E0762F66278181682B329722
:10151000808190E0982F882731962081822BFFDBF5
:10152000FFEFCF1ADF0AE6CF69EF81E792E00E9472
:101530006C0282E090E016D86AE081E792E00E94B7
:101540006C02CE010FD854C080E069DA6091350298
:1015500070E0762F662780913602682B80913302E7
:1015600090E0982F882720913402822BD8DB81E0ED
:1015700056DA69EF81E792E00E946C0281E090E028
:101580000E94B2026CE030C080E049DA609135021E
:1015900070E0762F662780913602682B80913302A7
:1015A00090E0982F882720913402822BB8DB81E0CD
:1015B00036DA6091390270E0762F662780913A0220
:1015C000682B8091370290E0982F8827209138026D
:1015D000822BA5DB69EF81E792E00E946C0281E03B
:1015E00090E00E94B2026EE081E792E00E946C02FD
:1015F00081E792E00E94B60201C0B0D90E94D702F2
:101600001ACE823061F41092900080939100109273
:1016100095001092940088BB80937100C2CD8330F6
:1016200069F41092A00082E08093A1001092A500BE
:101630001092A40089BB80937200B3CD8111B1CD0B
:101640001092200182E080932101109225011092D6
:1016500024018ABB80937300A4CD052E97FB16F45A
:1016600000940FD057FD05D024D007FC02D046F4DB
:1016700008C050954095309521953F4F4F4F5F4F93
:10168000089590958095709561957F4F8F4F9F4FEE
:10169000089531D0A59F900DB49F900DA49F800D0B
:1016A000911D11240895B7FFF4CFF3DF821B930B34
:1016B0000895A1E21A2EAA1BBB1BFD010DC0AA1F93
:1016C000BB1FEE1FFF1FA217B307E407F50720F0AB
:1016D000A21BB30BE40BF50B661F771F881F991F26
:1016E0001A9469F760957095809590959B01AC016F
:1016F000BD01CF010895A29FB001B39FC001A39F78
:10170000700D811D1124911DB29F700D811D11243A
:10171000911D0895991B79E004C0991F961708F050
:10172000961B881F7A95C9F780950895AA1BBB1B45
:1017300051E107C0AA1FBB1FA617B70710F0A61BD1
:10174000B70B881F991F5A95A9F780959095BC01F2
:10175000CD01089597FB072E16F4009406D077FD6F
:1017600008D0E4DF07FC05D03EF4909581959F4FAB
:101770000895709561957F4F0895EE0FFF1F881FA4
:101780008BBF0790F691E02D199481E090E0F894DA
:0617900000C0F894FFCF39
:10179600D200000000006C02E901360214022802A1
:0217A600B60289
:00000001FF
