:100000000C946A000C9492000C9492000C94920050
:100010000C9492000C9492000C9492000C94920018
:100020000C9492000C9492000C9492000C94FB039C
:100030000C9492000C9492000C9492000C949200F8
:100040000C94B1030C9492000C947F030C9459030C
:100050000C9492000C9492000C9492000C949200D8
:100060000C9492000C94920072086209870862094D
:100070009A086209B6086209D00862090209620991
:100080002509000000080002010000030407000029
:1000900000000000000000000000250028002B00E8
:1000A00000000000240027002A00040404040404C3
:1000B0000404020202020202030303030303010217
:1000C00004081020408001020408102001020408E6
:1000D0001020F60511241FBECFEFD8E0DEBFCDBF44
:1000E00011E0A0E0B1E0E6E1F4E102C005900D927C
:1000F000A231B107D9F722E0A2E1B1E001C01D921F
:10010000A333B207E1F710E0CAE6D0E004C02197BC
:10011000FE010E94FE09C936D107C9F70E945406A4
:100120000C94090A0C940000CF92DF92EF92FF9298
:10013000DC01A03282E0B8070CF03EC0B7FD06C07B
:10014000A53BB1052CF0A4EBB0E002C0A0E0B0E00C
:100150008091310228E830E06901C81AD10887FD92
:10016000D394CC0CDD1CCC0CDD1C0D2C000CEE084B
:10017000FF088091320228E532E0281B310987FD13
:100180003395220F331F220F331FA901330F660B44
:10019000770B9A01AB012C193D094E095F090E94AA
:1001A000910924EB30E040E050E00E946709C20E64
:1001B000D31EE41EF51ED601909130029C3098F5B6
:1001C0008091310248E850E0481B510987FD539562
:1001D000440F551F440F551FA417B5078CF080918D
:1001E000320228E532E0281B310987FD3395220FC2
:1001F000331F220F331FAD012A173B070CF4A9014F
:1002000042505109440F551F2FB7F894892F90E0A1
:10021000FC01EE0FFF1F8E0F9F1FFC01E55FFD4FDE
:10022000528341832FBFFF90EF90DF90CF900895CE
:1002300090E0FC01E254FF4F2491FC01E655FF4F92
:100240008491882399F090E0880F991FFC01E05673
:10025000FF4FA591B491FC01EA56FF4F859194910F
:100260008FB7F894EC91E22BEC938FBF0895CF9267
:10027000DF92EF92FF920F931F93CF93DF936C0166
:100280007A018B01C0E0D0E0CE15DF0589F0D801FE
:100290006D918D01D601ED91FC910190F081E02DE1
:1002A000C6010995892B11F47E0102C02196ECCF7D
:1002B000C701DF91CF911F910F91FF90EF90DF90D9
:1002C000CF900895FC01918D828D981761F0828DF9
:1002D000DF01A80FB11D5D968C91928D9F5F9F737A
:1002E000928F90E008958FEF9FEF0895FC01918D1C
:1002F000828D981731F0828DE80FF11D858D90E089
:1003000008958FEF9FEF0895FC01918D228D892F25
:1003100090E0805C9F4F821B91098F73992708950D
:100320008EE691E00E94840121E0892B09F420E00F
:10033000822F0895FC01848DDF01A80FB11DA35AFF
:10034000BF4F2C91848D90E001968F739927848FF5
:10035000A689B7892C93A089B1898C9180648C93EC
:10036000938D848D981306C00288F389E02D8081D7
:100370008F7D80830895EF92FF920F931F93CF9309
:10038000DF93EC0181E0888F9B8D8C8D981305C0E5
:10039000E889F989808185FD24C0F62E0B8D10E057
:1003A0000F5F1F4F0F731127E02E8C8DE8120CC0CA
:1003B0000FB607FCFACFE889F989808185FFF5CF70
:1003C000CE010E949A01F1CF8B8DFE01E80FF11D45
:1003D000E35AFF4FF0820B8FEA89FB8980818062AC
:1003E00007C0EE89FF896083E889F989808180648C
:1003F000808381E090E0DF91CF911F910F91FF907A
:10040000EF900895682F8EE691E00C94BB01CF9396
:10041000DF93EC01888D8823C9F0EA89FB8980810C
:1004200085FD05C0A889B9898C9186FD0FC00FB6DE
:1004300007FCF5CF808185FFF2CFA889B9898C911F
:1004400085FFEDCFCE010E949A01E7CFDF91CF91DA
:10045000089580E090E0892B29F00E94900181119D
:100460000C940000089590E0FC01EE57FF4F34918A
:10047000FC01E254FF4F2491FC01E655FF4FE4914B
:10048000EE2309F43BC0332339F1333091F038F4D3
:100490003130A9F0323001F584B58F7D12C037308C
:1004A00091F03830A1F03430B9F4809180008F7D24
:1004B00003C0809180008F77809380000DC084B549
:1004C0008F7784BD09C08091B0008F7703C0809181
:1004D000B0008F7D8093B000F0E0EE0FFF1FEA5672
:1004E000FF4FA591B4918FB7F894EC91611103C0BF
:1004F00020952E2301C02E2B2C938FBF08953FB73C
:10050000F89480911A0190911B01A0911C01B09167
:100510001D0126B5A89B05C02F3F19F00196A11D0E
:10052000B11D3FBFBA2FA92F982F8827820F911D89
:10053000A11DB11DBC01CD0142E0660F771F881FD0
:10054000991F4A95D1F708958F929F92AF92BF92CB
:10055000CF92DF92EF92FF926B017C010E947F02AB
:100560004B015C01C114D104E104F104F1F00E94DB
:100570007F02DC01CB0188199909AA09BB09883ED1
:100580009340A105B10570F321E0C21AD108E1083A
:10059000F10888EE880E83E0981EA11CB11CC114DE
:1005A000D104E104F10419F7DDCFFF90EF90DF9063
:1005B000CF90BF90AF909F908F9008956FEE8EE692
:1005C00091E00E94BB016FEE8EE691E00E94BB01BC
:1005D0006FEE8EE691E00E94BB018EE691E00C94F6
:1005E0000702CF92DF92EF92FF920F931F93CF9368
:1005F000DF9300D000D0CDB7DEB79FB7F894C0909E
:100600001601D0901701E0901801F09019019FBFDA
:10061000082F10E08EE691E049835A836B837C8338
:100620000E94840149815A816B817C8180179107E6
:10063000A4F42FB7F8948091160190911701A0911E
:100640001801B09119012FBF8C199D09AE09BF097E
:1006500084179507A607B707E8F28EE691E00E9497
:1006600084018017910724F40E94DE0280E001C01B
:1006700081E00F900F900F900F90DF91CF911F911D
:100680000F91FF90EF90DF90CF90089580931E011F
:10069000882319F08CE890E002C08AEA90E00E947A
:1006A000940068EC70E080E090E00C94A4020E945A
:1006B000040A1F920F920FB60F9211242F933F93AB
:1006C0004F935F936F937F938F939F93AF93BF935A
:1006D000EF93FF938EE691E00E949A01FF91EF91D4
:1006E000BF91AF919F918F917F916F915F914F914A
:1006F0003F912F910F900FBE0F901F9018951F9252
:100700000F920FB60F9211242F938F939F93EF9315
:10071000FF93E0917E01F0917F018081E09184015F
:10072000F091850182FD12C09081809187018F5FD9
:100730008F7320918801821751F0E0918701F0E0DA
:10074000E259FE4F958F8093870101C08081FF9110
:10075000EF919F918F912F910F900FBE0F901F904F
:1007600018951F920F920FB60F9211242F933F935B
:100770008F939F93AF93BF93809116019091170130
:10078000A0911801B09119013091150123E0230FB8
:100790002D3720F40196A11DB11D05C026E8230FB9
:1007A0000296A11DB11D209315018093160190930F
:1007B0001701A0931801B093190180911A0190912B
:1007C0001B01A0911C01B0911D010196A11DB11D3D
:1007D00080931A0190931B01A0931C01B0931D01FB
:1007E000BF91AF919F918F913F912F910F900FBE2D
:1007F0000F901F9018951F920F920FB60F92112411
:100800002F933F934F935F936F937F938F939F9318
:10081000AF93BF93EF93FF938091140187FF05C0BF
:1008200010928500109284001BC020911401022EAA
:10083000000C330B80912F0290E02817390784F4C5
:1008400080911401082E000C990BFC01EE0FFF1F84
:100850008E0F9F1FFC01E55FFD4F808186FD15C057
:10086000809114018F5F8093140120911401022E56
:10087000000C330B80912F0290E028173907C4F445
:10088000809114018C3064F113C080911401082E02
:10089000000C990BFC01EE0FFF1F8E0F9F1FFC0138
:1008A000E55FFD4F808160E08F730E943302D8CFF7
:1008B0008091840090918500049680349C4918F4BE
:1008C00080E49CE905C080918400909185000496A5
:1008D00090938900809388008FEF809314013BC030
:1008E000209184003091850080911401082E000C25
:1008F000990BFC01EE0FFF1F8E0F9F1FFC01E55FA0
:10090000FD4F81819281820F931F90938900809384
:10091000880080911401082E000C990BFC01EE0F49
:10092000FF1F8E0F9F1FFC01E55FFD4F808186FF3B
:1009300012C080911401082E000C990BFC01EE0FDF
:10094000FF1F8E0F9F1FFC01E55FFD4F808161E05F
:100950008F730E943302FF91EF91BF91AF919F91EE
:100960008F917F916F915F914F913F912F910F9058
:100970000FBE0F901F901895CF93DF93EB0197FF59
:1009800002C060E001C061E084E00E943302D7FF52
:1009900002C060E001C061E086E0DF91CF910C947D
:1009A00033024F925F926F927F928F929F92AF929B
:1009B000BF92CF92DF92EF92FF920F931F93CF934C
:1009C000DF937C0140911E018091120190911301EF
:1009D0002091000130910101442309F46FC06E326F
:1009E0004FEF74073CF0623D71053CF4EB01CE52D1
:1009F000DF4F05C0C0E0D0E002C0C3EAD1E087010C
:100A0000081B190B3E01621A730AB301C8010E9448
:100A1000BC04C80117FF03C09195819591096C0131
:100A200077FE03C0719461947108681679063CF0F2
:100A300063013C0145E0442E57E0552E04C027E0F9
:100A4000422E35E0532E660C771C83010C191D09CC
:100A5000882499248C189D08880C991CA12CB12CF1
:100A6000AC14BD0409F4A2C061E0852D0E943302DC
:100A70001016110624F461E0842D0E94330262E016
:100A800070E080E090E00E94A40260E0852D0E946A
:100A900033021016110634F460E0842D0E943302F4
:100AA000080D191D62E070E080E090E00E94A40251
:100AB000060D171D5FEFA51AB50AD2CF6E324FEFA4
:100AC00074073CF0623D71053CF4EB01CE52DF4F00
:100AD00005C0C0E0D0E002C0C3EAD1E0A701481BD6
:100AE000590BCA0160E476E00E94EA098C01AC016E
:100AF00097FF04C044275527481B590B41325340E8
:100B00004CF08C01181619061CF40054164002C053
:100B1000005C194F6E01C21AD30AB601C8010E94C7
:100B2000BC0417FF03C0119501951109D7FE03C03E
:100B3000D194C194D10848010C151D050CF446014F
:100B4000A12CB12CA814B90489F1A016B1066CF43B
:100B500061E085E00E943302AC14BD040CF03FC09C
:100B600061E087E00E94330203C0AC14BD04C4F30B
:100B700062E070E080E090E00E94A402A016B1065E
:100B800024F460E085E00E943302AC14BD0424F438
:100B900060E087E00E94330262E070E080E090E075
:100BA0000E94A4028FEFA81AB80ACCCFF0921301CA
:100BB000E0921201D0930101C0930001DF91CF9127
:100BC0001F910F91FF90EF90DF90CF90BF90AF906B
:100BD0009F908F907F906F905F904F90089562E00C
:100BE00070E080E090E00E94A402CBCF10927101EF
:100BF0001092700188EE93E0A0E0B0E08093720163
:100C000090937301A0937401B093750186E091E015
:100C100090936F0180936E0185EC90E090937B013F
:100C200080937A0184EC90E090937D0180937C0125
:100C300080EC90E090937F0180937E0181EC90E0C6
:100C4000909381018093800182EC90E090938301E6
:100C50008093820186EC90E09093850180938401DB
:100C600010928701109288011092890110928A01D6
:100C700080912F028C30A0F491E0980F90932F0276
:100C80008093300290E0FC01EE0FFF1F8E0F9F1F3C
:100C9000FC01E55FFD4F88EB9BE092838183089523
:100CA0008FEF809330020895789484B5826084BD7C
:100CB00084B5816084BD85B5826085BD85B5816060
:100CC00085BD80916E00816080936E0010928100DE
:100CD0008091810082608093810080918100816099
:100CE000809381008091800081608093800080915A
:100CF000B10084608093B1008091B00081608093E6
:100D0000B00080917A00846080937A0080917A00AC
:100D1000826080937A0080917A00816080937A006B
:100D200080917A00806880937A001092C1008CE0F4
:100D30000E94180184E00E94180185E00E941801B9
:100D40008DE00E94180186E00E94180187E00E9451
:100D5000180161E08CE00E94330261E08DE00E94A6
:100D6000330260E084E00E94330260E086E00E948B
:100D70003302809130028C3008F050C083E00E9432
:100D8000180180913002E82FF0E09F01220F331FFD
:100D9000E20FF31FE55FFD4F9081907C936090839D
:100DA00010923102109232026CE00E94CA094CE0AB
:100DB000849FB001112440E050E09A01260F371FB4
:100DC000F901EE0FFF1F2E0F3F1FF901E55FFD4FE9
:100DD000908196FD16C04F5F5F4F4C30510569F70B
:100DE00081110FC01092800082E0809381001092E8
:100DF000850010928400B19A80916F008260809388
:100E00006F00E0913002F0E0CF01880F991FE80FEA
:100E1000F91FE55FFD4F80818064808380E00E9440
:100E20004603E0917E01F0917F0182E08083E091B2
:100E30007A01F0917B011082E0917C01F0917D01BB
:100E400080E1808310928601E0918201F09183011C
:100E500086E08083E0918001F09181018081806152
:100E60008083E0918001F09181018081886080839E
:100E7000E0918001F0918101808180688083E09120
:100E80008001F091810180818F7D80832EE2A22EEE
:100E900021E0B22E0FEF10E0F50140E411924A95E7
:100EA000E9F78EE691E00E9484010497D0F38EE684
:100EB00091E00E94620180932D018E3F09F004C2EF
:100EC0008EE691E00E94620180932D018D3E09F033
:100ED000FBC18EE691E00E94620180932D018A3B66
:100EE00009F0F2C18EE691E00E94620180932D012B
:100EF0008E3B09F0E9C18AEC90E00E9402028EEF7D
:100F000090E00E94020280EF90E00E9402028DE0D9
:100F100090E00E9402028EE691E00E94070244EFF8
:100F200051E060E070E083E00E94F102882309F460
:100F3000CBC18EE691E00E9462018B3F910509F0E2
:100F4000C3C18EE691E00E946201582E80932C016D
:100F50008EE691E00E946201EC01282E80932B0125
:100F6000682F8EE691E00E94BB01652D8EE691E030
:100F70000E94BB016BEF8EE691E00E94BB018EE602
:100F800091E00E94070240ED57E060E070E08C2F96
:100F90008C5F0E94F102882309F496C19EE2E92E3B
:100FA00091E0F92E37016E01DD24460183E0880EC1
:100FB000911CC3018E5291408816990644F08EE62A
:100FC00091E00E946201F30181933F01F2CFF2E0D0
:100FD000CF0ED11CF601E25DFE4F408040922A0107
:100FE000F401E25DFE4F30803092290140ED57E080
:100FF00060E070E081E00E94F102882309F464C19E
:101000008EE691E00E9462018A3F910509F05CC181
:10101000EEE2F1E0812C912C20E030E0CF018E5205
:1010200091408C159D0580F48191A901480F511DB7
:10103000CA01B8010E94D6099C01880D991DB8010A
:101040000E94D6094C01EACF982C882428293929F6
:101050003093280120932701F901FF27F0932601FF
:10106000E0932501232F332730932401209323017C
:10107000C9018E0F9F1FB8010E94D6099801281B35
:10108000390B3093220120932101C9018E0F9F1F3C
:10109000B8010E94D609A801481B590B50932001A2
:1010A00040931F01842D90E02817390709F00AC1E9
:1010B000832D90E04817590709F004C180912E0153
:1010C000581200C180912F012812FCC0852D90E09C
:1010D000FC013197ED30F10508F0F4C0EC5CFF4FF6
:1010E0000C94FE0969EF8EE691E00E94BB0183E05B
:1010F00090E00E94020262E08EE691E00E94BB0155
:1011000061E08EE691E00E94BB0160E0D2C060E049
:101110008CE00E94330260E08DE00E94330269EFB0
:101120008EE691E00E94BB0181E090E00E94020205
:1011300064E0BFC080E00E94460360E070E080E0B1
:1011400090E00E94D10461E08CE00E94330261E0F3
:101150008DE00E94330269EF8EE691E00E94BB01B0
:1011600081E090E00E94020266E0A3C081E09091DD
:101170003001911101C080E00E94460369EF8EE6C4
:1011800091E00E94BB0182E090E00E94020268E0D0
:101190008EE691E00E94BB0180911E0190E02FC07D
:1011A000C695C695D0E0C12CD12C44E0E40EF11CCC
:1011B000CC16DD06ACF4F701608170E0762F66276F
:1011C0008181682B3297808190E0982F8827319613
:1011D0002081822B0E94D104FFEFCF1ADF0AE5CFD6
:1011E00069EF8EE691E00E94BB0182E090E00E94F0
:1011F00002026AE08EE691E00E94BB01CE010E94ED
:1012000002025BC080E00E9446036091320170E000
:10121000762F662780913301682B8091300190E012
:10122000982F882720913101822B0E94D10481E0E0
:101230000E94460369EF8EE691E00E94BB0181E0C7
:1012400090E00E9402026CE034C080E00E944603FD
:101250006091320170E0762F662780913301682B10
:101260008091300190E0982F882720913101822BC6
:101270000E94D10481E00E9446036091360170E033
:10128000762F662780913701682B8091340190E09A
:10129000982F882720913501822B0E94D10469EF75
:1012A0008EE691E00E94BB0181E090E00E94020284
:1012B0006EE08EE691E00E94BB018EE691E00E9416
:1012C000070202C00E94DE020E942902E5CD052E1F
:1012D00097FB1EF400940E947E0957FD07D00E94E0
:1012E000990907FC03D04EF40C947E095095409563
:1012F000309521953F4F4F4F5F4F089590958095C2
:10130000709561957F4F8F4F9F4F08950E94BB0945
:10131000A59F900DB49F900DA49F800D911D112449
:101320000895B7FF0C9486090E948609821B930BCF
:101330000895A1E21A2EAA1BBB1BFD010DC0AA1F16
:10134000BB1FEE1FFF1FA217B307E407F50720F02E
:10135000A21BB30BE40BF50B661F771F881F991FA9
:101360001A9469F760957095809590959B01AC01F2
:10137000BD01CF010895A29FB001B39FC001A39FFB
:10138000700D811D1124911DB29F700D811D1124BE
:10139000911D0895991B79E004C0991F961708F0D4
:1013A000961B881F7A95C9F780950895AA1BBB1BC9
:1013B00051E107C0AA1FBB1FA617B70710F0A61B55
:1013C000B70B881F991F5A95A9F780959095BC0176
:1013D000CD01089597FB072E16F4009407D077FDF2
:1013E00009D00E94D60907FC05D03EF4909581955E
:1013F0009F4F0895709561957F4F0895EE0FFF1FE1
:101400000590F491E02D099481E090E0F8940C941B
:06141000090AF894FFCF69
:10141600D20000000000BB013701840162017601A1
:021426000702BB
:00000001FF
